{
    "_format": "hh-sol-artifact-1",
    "contractName": "HistoryNFT",
    "sourceName": "contracts/HistoryNFT.sol",
    "abi": [
        {
            "inputs": [],
            "stateMutability": "nonpayable",
            "type": "constructor"
        },
        {
            "anonymous": false,
            "inputs": [
                {
                    "indexed": true,
                    "internalType": "address",
                    "name": "owner",
                    "type": "address"
                },
                {
                    "indexed": true,
                    "internalType": "address",
                    "name": "approved",
                    "type": "address"
                },
                {
                    "indexed": true,
                    "internalType": "uint256",
                    "name": "tokenId",
                    "type": "uint256"
                }
            ],
            "name": "Approval",
            "type": "event"
        },
        {
            "anonymous": false,
            "inputs": [
                {
                    "indexed": true,
                    "internalType": "address",
                    "name": "owner",
                    "type": "address"
                },
                {
                    "indexed": true,
                    "internalType": "address",
                    "name": "operator",
                    "type": "address"
                },
                {
                    "indexed": false,
                    "internalType": "bool",
                    "name": "approved",
                    "type": "bool"
                }
            ],
            "name": "ApprovalForAll",
            "type": "event"
        },
        {
            "anonymous": false,
            "inputs": [
                {
                    "indexed": true,
                    "internalType": "uint256",
                    "name": "tokenId",
                    "type": "uint256"
                },
                {
                    "indexed": false,
                    "internalType": "string",
                    "name": "tokenURI",
                    "type": "string"
                }
            ],
            "name": "CreatedHistoryNFT",
            "type": "event"
        },
        {
            "anonymous": false,
            "inputs": [
                {
                    "indexed": true,
                    "internalType": "address",
                    "name": "previousOwner",
                    "type": "address"
                },
                {
                    "indexed": true,
                    "internalType": "address",
                    "name": "newOwner",
                    "type": "address"
                }
            ],
            "name": "OwnershipTransferred",
            "type": "event"
        },
        {
            "anonymous": false,
            "inputs": [
                {
                    "indexed": true,
                    "internalType": "address",
                    "name": "from",
                    "type": "address"
                },
                {
                    "indexed": true,
                    "internalType": "address",
                    "name": "to",
                    "type": "address"
                },
                {
                    "indexed": true,
                    "internalType": "uint256",
                    "name": "tokenId",
                    "type": "uint256"
                }
            ],
            "name": "Transfer",
            "type": "event"
        },
        {
            "inputs": [
                {
                    "internalType": "address",
                    "name": "to",
                    "type": "address"
                },
                {
                    "internalType": "uint256",
                    "name": "tokenId",
                    "type": "uint256"
                }
            ],
            "name": "approve",
            "outputs": [],
            "stateMutability": "nonpayable",
            "type": "function"
        },
        {
            "inputs": [
                {
                    "internalType": "address",
                    "name": "owner",
                    "type": "address"
                }
            ],
            "name": "balanceOf",
            "outputs": [
                {
                    "internalType": "uint256",
                    "name": "",
                    "type": "uint256"
                }
            ],
            "stateMutability": "view",
            "type": "function"
        },
        {
            "inputs": [
                {
                    "internalType": "string",
                    "name": "history",
                    "type": "string"
                }
            ],
            "name": "create",
            "outputs": [],
            "stateMutability": "nonpayable",
            "type": "function"
        },
        {
            "inputs": [
                {
                    "internalType": "string",
                    "name": "JsonURI",
                    "type": "string"
                }
            ],
            "name": "formatTokenURI",
            "outputs": [
                {
                    "internalType": "string",
                    "name": "",
                    "type": "string"
                }
            ],
            "stateMutability": "pure",
            "type": "function"
        },
        {
            "inputs": [
                {
                    "internalType": "uint256",
                    "name": "tokenId",
                    "type": "uint256"
                }
            ],
            "name": "getApproved",
            "outputs": [
                {
                    "internalType": "address",
                    "name": "",
                    "type": "address"
                }
            ],
            "stateMutability": "view",
            "type": "function"
        },
        {
            "inputs": [],
            "name": "getTotalNFTsMintedSoFar",
            "outputs": [
                {
                    "internalType": "uint256",
                    "name": "",
                    "type": "uint256"
                }
            ],
            "stateMutability": "view",
            "type": "function"
        },
        {
            "inputs": [
                {
                    "internalType": "string",
                    "name": "history",
                    "type": "string"
                }
            ],
            "name": "historyToJsonURI",
            "outputs": [
                {
                    "internalType": "string",
                    "name": "",
                    "type": "string"
                }
            ],
            "stateMutability": "pure",
            "type": "function"
        },
        {
            "inputs": [
                {
                    "internalType": "address",
                    "name": "owner",
                    "type": "address"
                },
                {
                    "internalType": "address",
                    "name": "operator",
                    "type": "address"
                }
            ],
            "name": "isApprovedForAll",
            "outputs": [
                {
                    "internalType": "bool",
                    "name": "",
                    "type": "bool"
                }
            ],
            "stateMutability": "view",
            "type": "function"
        },
        {
            "inputs": [],
            "name": "name",
            "outputs": [
                {
                    "internalType": "string",
                    "name": "",
                    "type": "string"
                }
            ],
            "stateMutability": "view",
            "type": "function"
        },
        {
            "inputs": [],
            "name": "owner",
            "outputs": [
                {
                    "internalType": "address",
                    "name": "",
                    "type": "address"
                }
            ],
            "stateMutability": "view",
            "type": "function"
        },
        {
            "inputs": [
                {
                    "internalType": "uint256",
                    "name": "tokenId",
                    "type": "uint256"
                }
            ],
            "name": "ownerOf",
            "outputs": [
                {
                    "internalType": "address",
                    "name": "",
                    "type": "address"
                }
            ],
            "stateMutability": "view",
            "type": "function"
        },
        {
            "inputs": [],
            "name": "renounceOwnership",
            "outputs": [],
            "stateMutability": "nonpayable",
            "type": "function"
        },
        {
            "inputs": [
                {
                    "internalType": "address",
                    "name": "from",
                    "type": "address"
                },
                {
                    "internalType": "address",
                    "name": "to",
                    "type": "address"
                },
                {
                    "internalType": "uint256",
                    "name": "tokenId",
                    "type": "uint256"
                }
            ],
            "name": "safeTransferFrom",
            "outputs": [],
            "stateMutability": "nonpayable",
            "type": "function"
        },
        {
            "inputs": [
                {
                    "internalType": "address",
                    "name": "from",
                    "type": "address"
                },
                {
                    "internalType": "address",
                    "name": "to",
                    "type": "address"
                },
                {
                    "internalType": "uint256",
                    "name": "tokenId",
                    "type": "uint256"
                },
                {
                    "internalType": "bytes",
                    "name": "_data",
                    "type": "bytes"
                }
            ],
            "name": "safeTransferFrom",
            "outputs": [],
            "stateMutability": "nonpayable",
            "type": "function"
        },
        {
            "inputs": [
                {
                    "internalType": "address",
                    "name": "operator",
                    "type": "address"
                },
                {
                    "internalType": "bool",
                    "name": "approved",
                    "type": "bool"
                }
            ],
            "name": "setApprovalForAll",
            "outputs": [],
            "stateMutability": "nonpayable",
            "type": "function"
        },
        {
            "inputs": [
                {
                    "internalType": "bytes4",
                    "name": "interfaceId",
                    "type": "bytes4"
                }
            ],
            "name": "supportsInterface",
            "outputs": [
                {
                    "internalType": "bool",
                    "name": "",
                    "type": "bool"
                }
            ],
            "stateMutability": "view",
            "type": "function"
        },
        {
            "inputs": [],
            "name": "symbol",
            "outputs": [
                {
                    "internalType": "string",
                    "name": "",
                    "type": "string"
                }
            ],
            "stateMutability": "view",
            "type": "function"
        },
        {
            "inputs": [],
            "name": "tokenCounter",
            "outputs": [
                {
                    "internalType": "uint256",
                    "name": "",
                    "type": "uint256"
                }
            ],
            "stateMutability": "view",
            "type": "function"
        },
        {
            "inputs": [
                {
                    "internalType": "uint256",
                    "name": "tokenId",
                    "type": "uint256"
                }
            ],
            "name": "tokenURI",
            "outputs": [
                {
                    "internalType": "string",
                    "name": "",
                    "type": "string"
                }
            ],
            "stateMutability": "view",
            "type": "function"
        },
        {
            "inputs": [
                {
                    "internalType": "address",
                    "name": "from",
                    "type": "address"
                },
                {
                    "internalType": "address",
                    "name": "to",
                    "type": "address"
                },
                {
                    "internalType": "uint256",
                    "name": "tokenId",
                    "type": "uint256"
                }
            ],
            "name": "transferFrom",
            "outputs": [],
            "stateMutability": "nonpayable",
            "type": "function"
        },
        {
            "inputs": [
                {
                    "internalType": "address",
                    "name": "newOwner",
                    "type": "address"
                }
            ],
            "name": "transferOwnership",
            "outputs": [],
            "stateMutability": "nonpayable",
            "type": "function"
        }
    ],
    "bytecode": "0x60806040523480156200001157600080fd5b506040518060400160405280600b81526020017f486973746f7279204e46540000000000000000000000000000000000000000008152506040518060400160405280600a81526020017f686973746f72794e465400000000000000000000000000000000000000000000815250816000908051906020019062000096929190620001ae565b508060019080519060200190620000af929190620001ae565b505050620000d2620000c6620000e060201b60201c565b620000e860201b60201c565b6000600881905550620002c3565b600033905090565b6000600760009054906101000a900473ffffffffffffffffffffffffffffffffffffffff16905081600760006101000a81548173ffffffffffffffffffffffffffffffffffffffff021916908373ffffffffffffffffffffffffffffffffffffffff1602179055508173ffffffffffffffffffffffffffffffffffffffff168173ffffffffffffffffffffffffffffffffffffffff167f8be0079c531659141344cd1fd0a4f28419497f9722a3daafe3b4186f6b6457e060405160405180910390a35050565b828054620001bc906200025e565b90600052602060002090601f016020900481019282620001e057600085556200022c565b82601f10620001fb57805160ff19168380011785556200022c565b828001600101855582156200022c579182015b828111156200022b5782518255916020019190600101906200020e565b5b5090506200023b91906200023f565b5090565b5b808211156200025a57600081600090555060010162000240565b5090565b600060028204905060018216806200027757607f821691505b602082108114156200028e576200028d62000294565b5b50919050565b7f4e487b7100000000000000000000000000000000000000000000000000000000600052602260045260246000fd5b6134b480620002d36000396000f3fe608060405234801561001057600080fd5b50600436106101375760003560e01c8063715018a6116100b8578063b6a46b3b1161007c578063b6a46b3b1461034e578063b88d4fde1461036a578063c87b56dd14610386578063d082e381146103b6578063e985e9c5146103d4578063f2fde38b1461040457610137565b8063715018a6146102bc57806371aee193146102c65780638da5cb5b146102f657806395d89b4114610314578063a22cb4651461033257610137565b806323b872dd116100ff57806323b872dd146101f4578063387d3a2c1461021057806342842e0e146102405780636352211e1461025c57806370a082311461028c57610137565b806301ffc9a71461013c578063060475901461016c57806306fdde031461018a578063081812fc146101a8578063095ea7b3146101d8575b600080fd5b6101566004803603810190610151919061227f565b610420565b6040516101639190612d32565b60405180910390f35b610174610502565b6040516101819190612faf565b60405180910390f35b61019261050c565b60405161019f9190612d4d565b60405180910390f35b6101c260048036038101906101bd9190612312565b61059e565b6040516101cf9190612ccb565b60405180910390f35b6101f260048036038101906101ed9190612243565b610623565b005b61020e6004803603810190610209919061213d565b61073b565b005b61022a600480360381019061022591906122d1565b61079b565b6040516102379190612d4d565b60405180910390f35b61025a6004803603810190610255919061213d565b61082e565b005b61027660048036038101906102719190612312565b61084e565b6040516102839190612ccb565b60405180910390f35b6102a660048036038101906102a191906120d8565b610900565b6040516102b39190612faf565b60405180910390f35b6102c46109b8565b005b6102e060048036038101906102db91906122d1565b610a40565b6040516102ed9190612d4d565b60405180910390f35b6102fe610a90565b60405161030b9190612ccb565b60405180910390f35b61031c610aba565b6040516103299190612d4d565b60405180910390f35b61034c60048036038101906103479190612207565b610b4c565b005b610368600480360381019061036391906122d1565b610b62565b005b610384600480360381019061037f919061218c565b610be2565b005b6103a0600480360381019061039b9190612312565b610c44565b6040516103ad9190612d4d565b60405180910390f35b6103be610d96565b6040516103cb9190612faf565b60405180910390f35b6103ee60048036038101906103e99190612101565b610d9c565b6040516103fb9190612d32565b60405180910390f35b61041e600480360381019061041991906120d8565b610e30565b005b60007f80ac58cd000000000000000000000000000000000000000000000000000000007bffffffffffffffffffffffffffffffffffffffffffffffffffffffff1916827bffffffffffffffffffffffffffffffffffffffffffffffffffffffff191614806104eb57507f5b5e139f000000000000000000000000000000000000000000000000000000007bffffffffffffffffffffffffffffffffffffffffffffffffffffffff1916827bffffffffffffffffffffffffffffffffffffffffffffffffffffffff1916145b806104fb57506104fa82610f28565b5b9050919050565b6000600854905090565b60606000805461051b90613269565b80601f016020809104026020016040519081016040528092919081815260200182805461054790613269565b80156105945780601f1061056957610100808354040283529160200191610594565b820191906000526020600020905b81548152906001019060200180831161057757829003601f168201915b5050505050905090565b60006105a982610f92565b6105e8576040517f08c379a00000000000000000000000000000000000000000000000000000000081526004016105df90612eef565b60405180910390fd5b6004600083815260200190815260200160002060009054906101000a900473ffffffffffffffffffffffffffffffffffffffff169050919050565b600061062e8261084e565b90508073ffffffffffffffffffffffffffffffffffffffff168373ffffffffffffffffffffffffffffffffffffffff16141561069f576040517f08c379a000000000000000000000000000000000000000000000000000000000815260040161069690612f6f565b60405180910390fd5b8073ffffffffffffffffffffffffffffffffffffffff166106be610ffe565b73ffffffffffffffffffffffffffffffffffffffff1614806106ed57506106ec816106e7610ffe565b610d9c565b5b61072c576040517f08c379a000000000000000000000000000000000000000000000000000000000815260040161072390612e2f565b60405180910390fd5b6107368383611006565b505050565b61074c610746610ffe565b826110bf565b61078b576040517f08c379a000000000000000000000000000000000000000000000000000000000815260040161078290612f8f565b60405180910390fd5b61079683838361119d565b505050565b606060006040518060400160405280601a81526020017f646174613a6a736f6e2f6a736f6e2b786d6c3b6261736536342c00000000000081525090506000610801846040516020016107ed9190612c2b565b6040516020818303038152906040526113f9565b90508181604051602001610816929190612c42565b60405160208183030381529060405292505050919050565b61084983838360405180602001604052806000815250610be2565b505050565b6000806002600084815260200190815260200160002060009054906101000a900473ffffffffffffffffffffffffffffffffffffffff169050600073ffffffffffffffffffffffffffffffffffffffff168173ffffffffffffffffffffffffffffffffffffffff1614156108f7576040517f08c379a00000000000000000000000000000000000000000000000000000000081526004016108ee90612e6f565b60405180910390fd5b80915050919050565b60008073ffffffffffffffffffffffffffffffffffffffff168273ffffffffffffffffffffffffffffffffffffffff161415610971576040517f08c379a000000000000000000000000000000000000000000000000000000000815260040161096890612e4f565b60405180910390fd5b600360008373ffffffffffffffffffffffffffffffffffffffff1673ffffffffffffffffffffffffffffffffffffffff168152602001908152602001600020549050919050565b6109c0610ffe565b73ffffffffffffffffffffffffffffffffffffffff166109de610a90565b73ffffffffffffffffffffffffffffffffffffffff1614610a34576040517f08c379a0000000000000000000000000000000000000000000000000000000008152600401610a2b90612f0f565b60405180910390fd5b610a3e6000611598565b565b6060610a6a82604051602001610a569190612c66565b6040516020818303038152906040526113f9565b604051602001610a7a9190612ca9565b6040516020818303038152906040529050919050565b6000600760009054906101000a900473ffffffffffffffffffffffffffffffffffffffff16905090565b606060018054610ac990613269565b80601f0160208091040260200160405190810160405280929190818152602001828054610af590613269565b8015610b425780601f10610b1757610100808354040283529160200191610b42565b820191906000526020600020905b815481529060010190602001808311610b2557829003601f168201915b5050505050905090565b610b5e610b57610ffe565b838361165e565b5050565b610b6e336008546117cb565b6000610b798261079b565b9050610b8f600854610b8a83610a40565b6117e9565b6001600854610b9e919061309e565b6008819055506008547f7b66789461f6694203a03fee9fb7a073bc8a19fc5472204095fd4fd7c67e72e883604051610bd69190612d4d565b60405180910390a25050565b610bf3610bed610ffe565b836110bf565b610c32576040517f08c379a0000000000000000000000000000000000000000000000000000000008152600401610c2990612f8f565b60405180910390fd5b610c3e8484848461185d565b50505050565b6060610c4f82610f92565b610c8e576040517f08c379a0000000000000000000000000000000000000000000000000000000008152600401610c8590612ecf565b60405180910390fd5b6000600660008481526020019081526020016000208054610cae90613269565b80601f0160208091040260200160405190810160405280929190818152602001828054610cda90613269565b8015610d275780601f10610cfc57610100808354040283529160200191610d27565b820191906000526020600020905b815481529060010190602001808311610d0a57829003601f168201915b505050505090506000610d386118b9565b9050600081511415610d4e578192505050610d91565b600082511115610d83578082604051602001610d6b929190612c42565b60405160208183030381529060405292505050610d91565b610d8c846118d0565b925050505b919050565b60085481565b6000600560008473ffffffffffffffffffffffffffffffffffffffff1673ffffffffffffffffffffffffffffffffffffffff16815260200190815260200160002060008373ffffffffffffffffffffffffffffffffffffffff1673ffffffffffffffffffffffffffffffffffffffff16815260200190815260200160002060009054906101000a900460ff16905092915050565b610e38610ffe565b73ffffffffffffffffffffffffffffffffffffffff16610e56610a90565b73ffffffffffffffffffffffffffffffffffffffff1614610eac576040517f08c379a0000000000000000000000000000000000000000000000000000000008152600401610ea390612f0f565b60405180910390fd5b600073ffffffffffffffffffffffffffffffffffffffff168173ffffffffffffffffffffffffffffffffffffffff161415610f1c576040517f08c379a0000000000000000000000000000000000000000000000000000000008152600401610f1390612d8f565b60405180910390fd5b610f2581611598565b50565b60007f01ffc9a7000000000000000000000000000000000000000000000000000000007bffffffffffffffffffffffffffffffffffffffffffffffffffffffff1916827bffffffffffffffffffffffffffffffffffffffffffffffffffffffff1916149050919050565b60008073ffffffffffffffffffffffffffffffffffffffff166002600084815260200190815260200160002060009054906101000a900473ffffffffffffffffffffffffffffffffffffffff1673ffffffffffffffffffffffffffffffffffffffff1614159050919050565b600033905090565b816004600083815260200190815260200160002060006101000a81548173ffffffffffffffffffffffffffffffffffffffff021916908373ffffffffffffffffffffffffffffffffffffffff160217905550808273ffffffffffffffffffffffffffffffffffffffff166110798361084e565b73ffffffffffffffffffffffffffffffffffffffff167f8c5be1e5ebec7d5bd14f71427d1e84f3dd0314c0f7b2291e5b200ac8c7c3b92560405160405180910390a45050565b60006110ca82610f92565b611109576040517f08c379a000000000000000000000000000000000000000000000000000000000815260040161110090612e0f565b60405180910390fd5b60006111148361084e565b90508073ffffffffffffffffffffffffffffffffffffffff168473ffffffffffffffffffffffffffffffffffffffff16148061118357508373ffffffffffffffffffffffffffffffffffffffff1661116b8461059e565b73ffffffffffffffffffffffffffffffffffffffff16145b8061119457506111938185610d9c565b5b91505092915050565b8273ffffffffffffffffffffffffffffffffffffffff166111bd8261084e565b73ffffffffffffffffffffffffffffffffffffffff1614611213576040517f08c379a000000000000000000000000000000000000000000000000000000000815260040161120a90612f2f565b60405180910390fd5b600073ffffffffffffffffffffffffffffffffffffffff168273ffffffffffffffffffffffffffffffffffffffff161415611283576040517f08c379a000000000000000000000000000000000000000000000000000000000815260040161127a90612dcf565b60405180910390fd5b61128e838383611977565b611299600082611006565b6001600360008573ffffffffffffffffffffffffffffffffffffffff1673ffffffffffffffffffffffffffffffffffffffff16815260200190815260200160002060008282546112e9919061317f565b925050819055506001600360008473ffffffffffffffffffffffffffffffffffffffff1673ffffffffffffffffffffffffffffffffffffffff1681526020019081526020016000206000828254611340919061309e565b92505081905550816002600083815260200190815260200160002060006101000a81548173ffffffffffffffffffffffffffffffffffffffff021916908373ffffffffffffffffffffffffffffffffffffffff160217905550808273ffffffffffffffffffffffffffffffffffffffff168473ffffffffffffffffffffffffffffffffffffffff167fddf252ad1be2c89b69c2b068fc378daa952ba7f163c4a11628f55a4df523b3ef60405160405180910390a4505050565b606060008251141561141c57604051806020016040528060008152509050611593565b600060405180606001604052806040815260200161343f604091399050600060036002855161144b919061309e565b61145591906130f4565b60046114619190613125565b90506000602082611472919061309e565b67ffffffffffffffff8111156114b1577f4e487b7100000000000000000000000000000000000000000000000000000000600052604160045260246000fd5b6040519080825280601f01601f1916602001820160405280156114e35781602001600182028036833780820191505090505b509050818152600183018586518101602084015b81831015611552576003830192508251603f8160121c168501518253600182019150603f81600c1c168501518253600182019150603f8160061c168501518253600182019150603f81168501518253600182019150506114f7565b60038951066001811461156c576002811461157c57611587565b613d3d60f01b6002830352611587565b603d60f81b60018303525b50505050508093505050505b919050565b6000600760009054906101000a900473ffffffffffffffffffffffffffffffffffffffff16905081600760006101000a81548173ffffffffffffffffffffffffffffffffffffffff021916908373ffffffffffffffffffffffffffffffffffffffff1602179055508173ffffffffffffffffffffffffffffffffffffffff168173ffffffffffffffffffffffffffffffffffffffff167f8be0079c531659141344cd1fd0a4f28419497f9722a3daafe3b4186f6b6457e060405160405180910390a35050565b8173ffffffffffffffffffffffffffffffffffffffff168373ffffffffffffffffffffffffffffffffffffffff1614156116cd576040517f08c379a00000000000000000000000000000000000000000000000000000000081526004016116c490612def565b60405180910390fd5b80600560008573ffffffffffffffffffffffffffffffffffffffff1673ffffffffffffffffffffffffffffffffffffffff16815260200190815260200160002060008473ffffffffffffffffffffffffffffffffffffffff1673ffffffffffffffffffffffffffffffffffffffff16815260200190815260200160002060006101000a81548160ff0219169083151502179055508173ffffffffffffffffffffffffffffffffffffffff168373ffffffffffffffffffffffffffffffffffffffff167f17307eab39ab6107e8899845ad3d59bd9653f200f220920489ca2b5937696c31836040516117be9190612d32565b60405180910390a3505050565b6117e582826040518060200160405280600081525061197c565b5050565b6117f282610f92565b611831576040517f08c379a000000000000000000000000000000000000000000000000000000000815260040161182890612e8f565b60405180910390fd5b80600660008481526020019081526020016000209080519060200190611858929190611efc565b505050565b61186884848461119d565b611874848484846119d7565b6118b3576040517f08c379a00000000000000000000000000000000000000000000000000000000081526004016118aa90612d6f565b60405180910390fd5b50505050565b606060405180602001604052806000815250905090565b60606118db82610f92565b61191a576040517f08c379a000000000000000000000000000000000000000000000000000000000815260040161191190612f4f565b60405180910390fd5b60006119246118b9565b90506000815111611944576040518060200160405280600081525061196f565b8061194e84611b6e565b60405160200161195f929190612c42565b6040516020818303038152906040525b915050919050565b505050565b6119868383611d1b565b61199360008484846119d7565b6119d2576040517f08c379a00000000000000000000000000000000000000000000000000000000081526004016119c990612d6f565b60405180910390fd5b505050565b60006119f88473ffffffffffffffffffffffffffffffffffffffff16611ee9565b15611b61578373ffffffffffffffffffffffffffffffffffffffff1663150b7a02611a21610ffe565b8786866040518563ffffffff1660e01b8152600401611a439493929190612ce6565b602060405180830381600087803b158015611a5d57600080fd5b505af1925050508015611a8e57506040513d601f19601f82011682018060405250810190611a8b91906122a8565b60015b611b11573d8060008114611abe576040519150601f19603f3d011682016040523d82523d6000602084013e611ac3565b606091505b50600081511415611b09576040517f08c379a0000000000000000000000000000000000000000000000000000000008152600401611b0090612d6f565b60405180910390fd5b805181602001fd5b63150b7a0260e01b7bffffffffffffffffffffffffffffffffffffffffffffffffffffffff1916817bffffffffffffffffffffffffffffffffffffffffffffffffffffffff191614915050611b66565b600190505b949350505050565b60606000821415611bb6576040518060400160405280600181526020017f30000000000000000000000000000000000000000000000000000000000000008152509050611d16565b600082905060005b60008214611be8578080611bd19061329b565b915050600a82611be191906130f4565b9150611bbe565b60008167ffffffffffffffff811115611c2a577f4e487b7100000000000000000000000000000000000000000000000000000000600052604160045260246000fd5b6040519080825280601f01601f191660200182016040528015611c5c5781602001600182028036833780820191505090505b5090505b60008514611d0f57600182611c75919061317f565b9150600a85611c8491906132e4565b6030611c90919061309e565b60f81b818381518110611ccc577f4e487b7100000000000000000000000000000000000000000000000000000000600052603260045260246000fd5b60200101907effffffffffffffffffffffffffffffffffffffffffffffffffffffffffffff1916908160001a905350600a85611d0891906130f4565b9450611c60565b8093505050505b919050565b600073ffffffffffffffffffffffffffffffffffffffff168273ffffffffffffffffffffffffffffffffffffffff161415611d8b576040517f08c379a0000000000000000000000000000000000000000000000000000000008152600401611d8290612eaf565b60405180910390fd5b611d9481610f92565b15611dd4576040517f08c379a0000000000000000000000000000000000000000000000000000000008152600401611dcb90612daf565b60405180910390fd5b611de060008383611977565b6001600360008473ffffffffffffffffffffffffffffffffffffffff1673ffffffffffffffffffffffffffffffffffffffff1681526020019081526020016000206000828254611e30919061309e565b92505081905550816002600083815260200190815260200160002060006101000a81548173ffffffffffffffffffffffffffffffffffffffff021916908373ffffffffffffffffffffffffffffffffffffffff160217905550808273ffffffffffffffffffffffffffffffffffffffff16600073ffffffffffffffffffffffffffffffffffffffff167fddf252ad1be2c89b69c2b068fc378daa952ba7f163c4a11628f55a4df523b3ef60405160405180910390a45050565b600080823b905060008111915050919050565b828054611f0890613269565b90600052602060002090601f016020900481019282611f2a5760008555611f71565b82601f10611f4357805160ff1916838001178555611f71565b82800160010185558215611f71579182015b82811115611f70578251825591602001919060010190611f55565b5b509050611f7e9190611f82565b5090565b5b80821115611f9b576000816000905550600101611f83565b5090565b6000611fb2611fad84612ffb565b612fca565b905082815260208101848484011115611fca57600080fd5b611fd5848285613227565b509392505050565b6000611ff0611feb8461302b565b612fca565b90508281526020810184848401111561200857600080fd5b612013848285613227565b509392505050565b60008135905061202a816133e2565b92915050565b60008135905061203f816133f9565b92915050565b60008135905061205481613410565b92915050565b60008151905061206981613410565b92915050565b600082601f83011261208057600080fd5b8135612090848260208601611f9f565b91505092915050565b600082601f8301126120aa57600080fd5b81356120ba848260208601611fdd565b91505092915050565b6000813590506120d281613427565b92915050565b6000602082840312156120ea57600080fd5b60006120f88482850161201b565b91505092915050565b6000806040838503121561211457600080fd5b60006121228582860161201b565b92505060206121338582860161201b565b9150509250929050565b60008060006060848603121561215257600080fd5b60006121608682870161201b565b93505060206121718682870161201b565b9250506040612182868287016120c3565b9150509250925092565b600080600080608085870312156121a257600080fd5b60006121b08782880161201b565b94505060206121c18782880161201b565b93505060406121d2878288016120c3565b925050606085013567ffffffffffffffff8111156121ef57600080fd5b6121fb8782880161206f565b91505092959194509250565b6000806040838503121561221a57600080fd5b60006122288582860161201b565b925050602061223985828601612030565b9150509250929050565b6000806040838503121561225657600080fd5b60006122648582860161201b565b9250506020612275858286016120c3565b9150509250929050565b60006020828403121561229157600080fd5b600061229f84828501612045565b91505092915050565b6000602082840312156122ba57600080fd5b60006122c88482850161205a565b91505092915050565b6000602082840312156122e357600080fd5b600082013567ffffffffffffffff8111156122fd57600080fd5b61230984828501612099565b91505092915050565b60006020828403121561232457600080fd5b6000612332848285016120c3565b91505092915050565b612344816131b3565b82525050565b612353816131c5565b82525050565b60006123648261305b565b61236e8185613071565b935061237e818560208601613236565b612387816133d1565b840191505092915050565b600061239d82613066565b6123a78185613082565b93506123b7818560208601613236565b6123c0816133d1565b840191505092915050565b60006123d682613066565b6123e08185613093565b93506123f0818560208601613236565b80840191505092915050565b6000612409600983613093565b91507f7b226e616d65223a2200000000000000000000000000000000000000000000006000830152600982019050919050565b6000612449605783613093565b91507f222c20226465736372697074696f6e223a22416e204e4654206261736564206f60008301527f6e20476f6f676c65204368726f6d6520486973746f727921222c20226174747260208301527f696275746573223a22222c2022686973746f7279223a220000000000000000006040830152605782019050919050565b60006124d5603283613082565b91507f4552433732313a207472616e7366657220746f206e6f6e20455243373231526560008301527f63656976657220696d706c656d656e74657200000000000000000000000000006020830152604082019050919050565b600061253b600b83613093565b91507f486973746f7279204e46540000000000000000000000000000000000000000006000830152600b82019050919050565b600061257b602683613082565b91507f4f776e61626c653a206e6577206f776e657220697320746865207a65726f206160008301527f64647265737300000000000000000000000000000000000000000000000000006020830152604082019050919050565b60006125e1601c83613082565b91507f4552433732313a20746f6b656e20616c7265616479206d696e746564000000006000830152602082019050919050565b6000612621602483613082565b91507f4552433732313a207472616e7366657220746f20746865207a65726f2061646460008301527f72657373000000000000000000000000000000000000000000000000000000006020830152604082019050919050565b6000612687601983613082565b91507f4552433732313a20617070726f766520746f2063616c6c6572000000000000006000830152602082019050919050565b60006126c7602c83613082565b91507f4552433732313a206f70657261746f7220717565727920666f72206e6f6e657860008301527f697374656e7420746f6b656e00000000000000000000000000000000000000006020830152604082019050919050565b600061272d603883613082565b91507f4552433732313a20617070726f76652063616c6c6572206973206e6f74206f7760008301527f6e6572206e6f7220617070726f76656420666f7220616c6c00000000000000006020830152604082019050919050565b6000612793602a83613082565b91507f4552433732313a2062616c616e636520717565727920666f7220746865207a6560008301527f726f2061646472657373000000000000000000000000000000000000000000006020830152604082019050919050565b60006127f9602983613082565b91507f4552433732313a206f776e657220717565727920666f72206e6f6e657869737460008301527f656e7420746f6b656e00000000000000000000000000000000000000000000006020830152604082019050919050565b600061285f602e83613082565b91507f45524337323155524953746f726167653a2055524920736574206f66206e6f6e60008301527f6578697374656e7420746f6b656e0000000000000000000000000000000000006020830152604082019050919050565b60006128c5600283613093565b91507f227d0000000000000000000000000000000000000000000000000000000000006000830152600282019050919050565b6000612905602083613082565b91507f4552433732313a206d696e7420746f20746865207a65726f20616464726573736000830152602082019050919050565b6000612945603183613082565b91507f45524337323155524953746f726167653a2055524920717565727920666f722060008301527f6e6f6e6578697374656e7420746f6b656e0000000000000000000000000000006020830152604082019050919050565b60006129ab602c83613082565b91507f4552433732313a20617070726f76656420717565727920666f72206e6f6e657860008301527f697374656e7420746f6b656e00000000000000000000000000000000000000006020830152604082019050919050565b6000612a11602083613082565b91507f4f776e61626c653a2063616c6c6572206973206e6f7420746865206f776e65726000830152602082019050919050565b6000612a51602983613082565b91507f4552433732313a207472616e73666572206f6620746f6b656e2074686174206960008301527f73206e6f74206f776e00000000000000000000000000000000000000000000006020830152604082019050919050565b6000612ab7602f83613082565b91507f4552433732314d657461646174613a2055524920717565727920666f72206e6f60008301527f6e6578697374656e7420746f6b656e00000000000000000000000000000000006020830152604082019050919050565b6000612b1d602183613082565b91507f4552433732313a20617070726f76616c20746f2063757272656e74206f776e6560008301527f72000000000000000000000000000000000000000000000000000000000000006020830152604082019050919050565b6000612b83601d83613093565b91507f646174613a6170706c69636174696f6e2f6a736f6e3b6261736536342c0000006000830152601d82019050919050565b6000612bc3603183613082565b91507f4552433732313a207472616e736665722063616c6c6572206973206e6f74206f60008301527f776e6572206e6f7220617070726f7665640000000000000000000000000000006020830152604082019050919050565b612c258161321d565b82525050565b6000612c3782846123cb565b915081905092915050565b6000612c4e82856123cb565b9150612c5a82846123cb565b91508190509392505050565b6000612c71826123fc565b9150612c7c8261252e565b9150612c878261243c565b9150612c9382846123cb565b9150612c9e826128b8565b915081905092915050565b6000612cb482612b76565b9150612cc082846123cb565b915081905092915050565b6000602082019050612ce0600083018461233b565b92915050565b6000608082019050612cfb600083018761233b565b612d08602083018661233b565b612d156040830185612c1c565b8181036060830152612d278184612359565b905095945050505050565b6000602082019050612d47600083018461234a565b92915050565b60006020820190508181036000830152612d678184612392565b905092915050565b60006020820190508181036000830152612d88816124c8565b9050919050565b60006020820190508181036000830152612da88161256e565b9050919050565b60006020820190508181036000830152612dc8816125d4565b9050919050565b60006020820190508181036000830152612de881612614565b9050919050565b60006020820190508181036000830152612e088161267a565b9050919050565b60006020820190508181036000830152612e28816126ba565b9050919050565b60006020820190508181036000830152612e4881612720565b9050919050565b60006020820190508181036000830152612e6881612786565b9050919050565b60006020820190508181036000830152612e88816127ec565b9050919050565b60006020820190508181036000830152612ea881612852565b9050919050565b60006020820190508181036000830152612ec8816128f8565b9050919050565b60006020820190508181036000830152612ee881612938565b9050919050565b60006020820190508181036000830152612f088161299e565b9050919050565b60006020820190508181036000830152612f2881612a04565b9050919050565b60006020820190508181036000830152612f4881612a44565b9050919050565b60006020820190508181036000830152612f6881612aaa565b9050919050565b60006020820190508181036000830152612f8881612b10565b9050919050565b60006020820190508181036000830152612fa881612bb6565b9050919050565b6000602082019050612fc46000830184612c1c565b92915050565b6000604051905081810181811067ffffffffffffffff82111715612ff157612ff06133a2565b5b8060405250919050565b600067ffffffffffffffff821115613016576130156133a2565b5b601f19601f8301169050602081019050919050565b600067ffffffffffffffff821115613046576130456133a2565b5b601f19601f8301169050602081019050919050565b600081519050919050565b600081519050919050565b600082825260208201905092915050565b600082825260208201905092915050565b600081905092915050565b60006130a98261321d565b91506130b48361321d565b9250827fffffffffffffffffffffffffffffffffffffffffffffffffffffffffffffffff038211156130e9576130e8613315565b5b828201905092915050565b60006130ff8261321d565b915061310a8361321d565b92508261311a57613119613344565b5b828204905092915050565b60006131308261321d565b915061313b8361321d565b9250817fffffffffffffffffffffffffffffffffffffffffffffffffffffffffffffffff048311821515161561317457613173613315565b5b828202905092915050565b600061318a8261321d565b91506131958361321d565b9250828210156131a8576131a7613315565b5b828203905092915050565b60006131be826131fd565b9050919050565b60008115159050919050565b60007fffffffff0000000000000000000000000000000000000000000000000000000082169050919050565b600073ffffffffffffffffffffffffffffffffffffffff82169050919050565b6000819050919050565b82818337600083830152505050565b60005b83811015613254578082015181840152602081019050613239565b83811115613263576000848401525b50505050565b6000600282049050600182168061328157607f821691505b6020821081141561329557613294613373565b5b50919050565b60006132a68261321d565b91507fffffffffffffffffffffffffffffffffffffffffffffffffffffffffffffffff8214156132d9576132d8613315565b5b600182019050919050565b60006132ef8261321d565b91506132fa8361321d565b92508261330a57613309613344565b5b828206905092915050565b7f4e487b7100000000000000000000000000000000000000000000000000000000600052601160045260246000fd5b7f4e487b7100000000000000000000000000000000000000000000000000000000600052601260045260246000fd5b7f4e487b7100000000000000000000000000000000000000000000000000000000600052602260045260246000fd5b7f4e487b7100000000000000000000000000000000000000000000000000000000600052604160045260246000fd5b6000601f19601f8301169050919050565b6133eb816131b3565b81146133f657600080fd5b50565b613402816131c5565b811461340d57600080fd5b50565b613419816131d1565b811461342457600080fd5b50565b6134308161321d565b811461343b57600080fd5b5056fe4142434445464748494a4b4c4d4e4f505152535455565758595a6162636465666768696a6b6c6d6e6f707172737475767778797a303132333435363738392b2fa2646970667358221220dc79f6a99483838c89cffc709a163e2cb79f7e12e51f835f614f4812592cca5264736f6c63430008000033",
    "linkReferences": {},
    "deployedLinkReferences": {}
}